:03000000020111E9
:0C011100787FE4F6D8FD75810702012F0D
:03012900C2B0223F
:03012C00D2B0222C
:1000E600EF4E60157D087C07ED1DAA0470011C4AC1
:0900F60070F6EF1F70EA1E80E7AE
:0100FF0022DE
:0A0097001200A1E4FF1200A17F1087
:1000A100ED6004D2978002C297C2B2E4FEC290EF23
:1000B10030E704D2918002C291D290EF25E0FF0E89
:0700C100BE08EAD2B2D2979B
:0100C8002215
:10010000E4FD7F8D1200A17F141200A17FAF0200D9
:01011000A14D
:0C011D00E4FD7F8D12009C7FAE0200A16B
:1000C900E4FCEC24B0FFE4FD120097E4FB7D01E4BD
:0C00D900FF1200A10BBB80F50CBC08E678
:0100E50022F8
:10000300C2967FC87E001200E6D296E4FD7FAE1250
:1000130000977F401200A17F811200A17FCF1200C1
:10002300A17FA11200A17FC81200A17FA61200A187
:100033007FA81200A17F3F1200A17FD31200A1E489
:10004300FF1200A17FD51200A17F801200A17FD9EA
:100053001200A17FF11200A17FDA1200A17F121218
:1000630000A17FDB1200A17F401200A17F201200BC
:10007300A17F021200A17F8D1200A17F141200A1A3
:100083007FA41200A17FA61200A11200C9E4FD7F84
:04009300AF0200A117
:03012F0002012C9E
:00000001FF
